{
  "_format": "hh-sol-artifact-1",
  "contractName": "CuddlesAI",
  "sourceName": "contracts/CuddlesAI.sol",
  "abi": [
    {
      "inputs": [
        {
          "internalType": "string",
          "name": "name",
          "type": "string"
        },
        {
          "internalType": "string",
          "name": "symbol",
          "type": "string"
        }
      ],
      "stateMutability": "nonpayable",
      "type": "constructor"
    },
    {
      "anonymous": false,
      "inputs": [
        {
          "indexed": true,
          "internalType": "address",
          "name": "owner",
          "type": "address"
        },
        {
          "indexed": true,
          "internalType": "address",
          "name": "approved",
          "type": "address"
        },
        {
          "indexed": true,
          "internalType": "uint256",
          "name": "tokenId",
          "type": "uint256"
        }
      ],
      "name": "Approval",
      "type": "event"
    },
    {
      "anonymous": false,
      "inputs": [
        {
          "indexed": true,
          "internalType": "address",
          "name": "owner",
          "type": "address"
        },
        {
          "indexed": true,
          "internalType": "address",
          "name": "operator",
          "type": "address"
        },
        {
          "indexed": false,
          "internalType": "bool",
          "name": "approved",
          "type": "bool"
        }
      ],
      "name": "ApprovalForAll",
      "type": "event"
    },
    {
      "anonymous": false,
      "inputs": [
        {
          "indexed": false,
          "internalType": "uint256",
          "name": "_fromTokenId",
          "type": "uint256"
        },
        {
          "indexed": false,
          "internalType": "uint256",
          "name": "_toTokenId",
          "type": "uint256"
        }
      ],
      "name": "BatchMetadataUpdate",
      "type": "event"
    },
    {
      "anonymous": false,
      "inputs": [
        {
          "indexed": false,
          "internalType": "uint256",
          "name": "_tokenId",
          "type": "uint256"
        }
      ],
      "name": "MetadataUpdate",
      "type": "event"
    },
    {
      "anonymous": false,
      "inputs": [
        {
          "indexed": true,
          "internalType": "address",
          "name": "previousOwner",
          "type": "address"
        },
        {
          "indexed": true,
          "internalType": "address",
          "name": "newOwner",
          "type": "address"
        }
      ],
      "name": "OwnershipTransferred",
      "type": "event"
    },
    {
      "anonymous": false,
      "inputs": [
        {
          "indexed": true,
          "internalType": "address",
          "name": "from",
          "type": "address"
        },
        {
          "indexed": true,
          "internalType": "address",
          "name": "to",
          "type": "address"
        },
        {
          "indexed": true,
          "internalType": "uint256",
          "name": "tokenId",
          "type": "uint256"
        }
      ],
      "name": "Transfer",
      "type": "event"
    },
    {
      "inputs": [
        {
          "internalType": "address",
          "name": "to",
          "type": "address"
        },
        {
          "internalType": "uint256",
          "name": "tokenId",
          "type": "uint256"
        }
      ],
      "name": "approve",
      "outputs": [],
      "stateMutability": "nonpayable",
      "type": "function"
    },
    {
      "inputs": [
        {
          "internalType": "address",
          "name": "owner",
          "type": "address"
        }
      ],
      "name": "balanceOf",
      "outputs": [
        {
          "internalType": "uint256",
          "name": "",
          "type": "uint256"
        }
      ],
      "stateMutability": "view",
      "type": "function"
    },
    {
      "inputs": [
        {
          "internalType": "uint256",
          "name": "tokenId",
          "type": "uint256"
        }
      ],
      "name": "burn",
      "outputs": [],
      "stateMutability": "nonpayable",
      "type": "function"
    },
    {
      "inputs": [
        {
          "internalType": "uint256",
          "name": "tokenId",
          "type": "uint256"
        }
      ],
      "name": "getApproved",
      "outputs": [
        {
          "internalType": "address",
          "name": "",
          "type": "address"
        }
      ],
      "stateMutability": "view",
      "type": "function"
    },
    {
      "inputs": [
        {
          "internalType": "address",
          "name": "owner",
          "type": "address"
        },
        {
          "internalType": "address",
          "name": "operator",
          "type": "address"
        }
      ],
      "name": "isApprovedForAll",
      "outputs": [
        {
          "internalType": "bool",
          "name": "",
          "type": "bool"
        }
      ],
      "stateMutability": "view",
      "type": "function"
    },
    {
      "inputs": [],
      "name": "name",
      "outputs": [
        {
          "internalType": "string",
          "name": "",
          "type": "string"
        }
      ],
      "stateMutability": "view",
      "type": "function"
    },
    {
      "inputs": [],
      "name": "owner",
      "outputs": [
        {
          "internalType": "address",
          "name": "",
          "type": "address"
        }
      ],
      "stateMutability": "view",
      "type": "function"
    },
    {
      "inputs": [
        {
          "internalType": "uint256",
          "name": "tokenId",
          "type": "uint256"
        }
      ],
      "name": "ownerOf",
      "outputs": [
        {
          "internalType": "address",
          "name": "",
          "type": "address"
        }
      ],
      "stateMutability": "view",
      "type": "function"
    },
    {
      "inputs": [],
      "name": "renounceOwnership",
      "outputs": [],
      "stateMutability": "nonpayable",
      "type": "function"
    },
    {
      "inputs": [
        {
          "internalType": "string",
          "name": "uri",
          "type": "string"
        }
      ],
      "name": "safeMint",
      "outputs": [],
      "stateMutability": "payable",
      "type": "function"
    },
    {
      "inputs": [
        {
          "internalType": "address",
          "name": "from",
          "type": "address"
        },
        {
          "internalType": "address",
          "name": "to",
          "type": "address"
        },
        {
          "internalType": "uint256",
          "name": "tokenId",
          "type": "uint256"
        }
      ],
      "name": "safeTransferFrom",
      "outputs": [],
      "stateMutability": "nonpayable",
      "type": "function"
    },
    {
      "inputs": [
        {
          "internalType": "address",
          "name": "from",
          "type": "address"
        },
        {
          "internalType": "address",
          "name": "to",
          "type": "address"
        },
        {
          "internalType": "uint256",
          "name": "tokenId",
          "type": "uint256"
        },
        {
          "internalType": "bytes",
          "name": "data",
          "type": "bytes"
        }
      ],
      "name": "safeTransferFrom",
      "outputs": [],
      "stateMutability": "nonpayable",
      "type": "function"
    },
    {
      "inputs": [
        {
          "internalType": "address",
          "name": "operator",
          "type": "address"
        },
        {
          "internalType": "bool",
          "name": "approved",
          "type": "bool"
        }
      ],
      "name": "setApprovalForAll",
      "outputs": [],
      "stateMutability": "nonpayable",
      "type": "function"
    },
    {
      "inputs": [
        {
          "internalType": "bytes4",
          "name": "interfaceId",
          "type": "bytes4"
        }
      ],
      "name": "supportsInterface",
      "outputs": [
        {
          "internalType": "bool",
          "name": "",
          "type": "bool"
        }
      ],
      "stateMutability": "view",
      "type": "function"
    },
    {
      "inputs": [],
      "name": "symbol",
      "outputs": [
        {
          "internalType": "string",
          "name": "",
          "type": "string"
        }
      ],
      "stateMutability": "view",
      "type": "function"
    },
    {
      "inputs": [
        {
          "internalType": "uint256",
          "name": "index",
          "type": "uint256"
        }
      ],
      "name": "tokenByIndex",
      "outputs": [
        {
          "internalType": "uint256",
          "name": "",
          "type": "uint256"
        }
      ],
      "stateMutability": "view",
      "type": "function"
    },
    {
      "inputs": [
        {
          "internalType": "address",
          "name": "owner",
          "type": "address"
        },
        {
          "internalType": "uint256",
          "name": "index",
          "type": "uint256"
        }
      ],
      "name": "tokenOfOwnerByIndex",
      "outputs": [
        {
          "internalType": "uint256",
          "name": "",
          "type": "uint256"
        }
      ],
      "stateMutability": "view",
      "type": "function"
    },
    {
      "inputs": [
        {
          "internalType": "uint256",
          "name": "tokenId",
          "type": "uint256"
        }
      ],
      "name": "tokenURI",
      "outputs": [
        {
          "internalType": "string",
          "name": "",
          "type": "string"
        }
      ],
      "stateMutability": "view",
      "type": "function"
    },
    {
      "inputs": [],
      "name": "totalSupply",
      "outputs": [
        {
          "internalType": "uint256",
          "name": "",
          "type": "uint256"
        }
      ],
      "stateMutability": "view",
      "type": "function"
    },
    {
      "inputs": [
        {
          "internalType": "address",
          "name": "from",
          "type": "address"
        },
        {
          "internalType": "address",
          "name": "to",
          "type": "address"
        },
        {
          "internalType": "uint256",
          "name": "tokenId",
          "type": "uint256"
        }
      ],
      "name": "transferFrom",
      "outputs": [],
      "stateMutability": "nonpayable",
      "type": "function"
    },
    {
      "inputs": [
        {
          "internalType": "address",
          "name": "newOwner",
          "type": "address"
        }
      ],
      "name": "transferOwnership",
      "outputs": [],
      "stateMutability": "nonpayable",
      "type": "function"
    }
  ],
  "bytecode": "0x60806040523480156200001157600080fd5b506040516200421a3803806200421a8339818101604052810190620000379190620002e8565b818181600090816200004a9190620005b8565b5080600190816200005c9190620005b8565b5050506200007f620000736200008760201b60201c565b6200008f60201b60201c565b50506200069f565b600033905090565b6000600b60009054906101000a900473ffffffffffffffffffffffffffffffffffffffff16905081600b60006101000a81548173ffffffffffffffffffffffffffffffffffffffff021916908373ffffffffffffffffffffffffffffffffffffffff1602179055508173ffffffffffffffffffffffffffffffffffffffff168173ffffffffffffffffffffffffffffffffffffffff167f8be0079c531659141344cd1fd0a4f28419497f9722a3daafe3b4186f6b6457e060405160405180910390a35050565b6000604051905090565b600080fd5b600080fd5b600080fd5b600080fd5b6000601f19601f8301169050919050565b7f4e487b7100000000000000000000000000000000000000000000000000000000600052604160045260246000fd5b620001be8262000173565b810181811067ffffffffffffffff82111715620001e057620001df62000184565b5b80604052505050565b6000620001f562000155565b9050620002038282620001b3565b919050565b600067ffffffffffffffff82111562000226576200022562000184565b5b620002318262000173565b9050602081019050919050565b60005b838110156200025e57808201518184015260208101905062000241565b60008484015250505050565b6000620002816200027b8462000208565b620001e9565b905082815260208101848484011115620002a0576200029f6200016e565b5b620002ad8482856200023e565b509392505050565b600082601f830112620002cd57620002cc62000169565b5b8151620002df8482602086016200026a565b91505092915050565b600080604083850312156200030257620003016200015f565b5b600083015167ffffffffffffffff81111562000323576200032262000164565b5b6200033185828601620002b5565b925050602083015167ffffffffffffffff81111562000355576200035462000164565b5b6200036385828601620002b5565b9150509250929050565b600081519050919050565b7f4e487b7100000000000000000000000000000000000000000000000000000000600052602260045260246000fd5b60006002820490506001821680620003c057607f821691505b602082108103620003d657620003d562000378565b5b50919050565b60008190508160005260206000209050919050565b60006020601f8301049050919050565b600082821b905092915050565b600060088302620004407fffffffffffffffffffffffffffffffffffffffffffffffffffffffffffffffff8262000401565b6200044c868362000401565b95508019841693508086168417925050509392505050565b6000819050919050565b6000819050919050565b600062000499620004936200048d8462000464565b6200046e565b62000464565b9050919050565b6000819050919050565b620004b58362000478565b620004cd620004c482620004a0565b8484546200040e565b825550505050565b600090565b620004e4620004d5565b620004f1818484620004aa565b505050565b5b8181101562000519576200050d600082620004da565b600181019050620004f7565b5050565b601f82111562000568576200053281620003dc565b6200053d84620003f1565b810160208510156200054d578190505b620005656200055c85620003f1565b830182620004f6565b50505b505050565b600082821c905092915050565b60006200058d600019846008026200056d565b1980831691505092915050565b6000620005a883836200057a565b9150826002028217905092915050565b620005c3826200036d565b67ffffffffffffffff811115620005df57620005de62000184565b5b620005eb8254620003a7565b620005f88282856200051d565b600060209050601f8311600181146200063057600084156200061b578287015190505b6200062785826200059a565b86555062000697565b601f1984166200064086620003dc565b60005b828110156200066a5784890151825560018201915060208501945060208101905062000643565b868310156200068a578489015162000686601f8916826200057a565b8355505b6001600288020188555050505b505050505050565b613b6b80620006af6000396000f3fe60806040526004361061012a5760003560e01c80636352211e116100ab57806395d89b411161006f57806395d89b41146103f5578063a22cb46514610420578063b88d4fde14610449578063c87b56dd14610472578063e985e9c5146104af578063f2fde38b146104ec5761012a565b80636352211e1461031d578063695850fb1461035a57806370a0823114610376578063715018a6146103b35780638da5cb5b146103ca5761012a565b806323b872dd116100f257806323b872dd146102285780632f745c591461025157806342842e0e1461028e57806342966c68146102b75780634f6ccce7146102e05761012a565b806301ffc9a71461012f57806306fdde031461016c578063081812fc14610197578063095ea7b3146101d457806318160ddd146101fd575b600080fd5b34801561013b57600080fd5b50610156600480360381019061015191906126f8565b610515565b6040516101639190612740565b60405180910390f35b34801561017857600080fd5b50610181610527565b60405161018e91906127eb565b60405180910390f35b3480156101a357600080fd5b506101be60048036038101906101b99190612843565b6105b9565b6040516101cb91906128b1565b60405180910390f35b3480156101e057600080fd5b506101fb60048036038101906101f691906128f8565b6105ff565b005b34801561020957600080fd5b50610212610716565b60405161021f9190612947565b60405180910390f35b34801561023457600080fd5b5061024f600480360381019061024a9190612962565b610723565b005b34801561025d57600080fd5b50610278600480360381019061027391906128f8565b610783565b6040516102859190612947565b60405180910390f35b34801561029a57600080fd5b506102b560048036038101906102b09190612962565b610828565b005b3480156102c357600080fd5b506102de60048036038101906102d99190612843565b610848565b005b3480156102ec57600080fd5b5061030760048036038101906103029190612843565b6108a4565b6040516103149190612947565b60405180910390f35b34801561032957600080fd5b50610344600480360381019061033f9190612843565b610915565b60405161035191906128b1565b60405180910390f35b610374600480360381019061036f9190612aea565b61099b565b005b34801561038257600080fd5b5061039d60048036038101906103989190612b33565b6109d3565b6040516103aa9190612947565b60405180910390f35b3480156103bf57600080fd5b506103c8610a8a565b005b3480156103d657600080fd5b506103df610a9e565b6040516103ec91906128b1565b60405180910390f35b34801561040157600080fd5b5061040a610ac8565b60405161041791906127eb565b60405180910390f35b34801561042c57600080fd5b5061044760048036038101906104429190612b8c565b610b5a565b005b34801561045557600080fd5b50610470600480360381019061046b9190612c6d565b610b70565b005b34801561047e57600080fd5b5061049960048036038101906104949190612843565b610bd2565b6040516104a691906127eb565b60405180910390f35b3480156104bb57600080fd5b506104d660048036038101906104d19190612cf0565b610be4565b6040516104e39190612740565b60405180910390f35b3480156104f857600080fd5b50610513600480360381019061050e9190612b33565b610c78565b005b600061052082610cfb565b9050919050565b60606000805461053690612d5f565b80601f016020809104026020016040519081016040528092919081815260200182805461056290612d5f565b80156105af5780601f10610584576101008083540402835291602001916105af565b820191906000526020600020905b81548152906001019060200180831161059257829003601f168201915b5050505050905090565b60006105c482610d5c565b6004600083815260200190815260200160002060009054906101000a900473ffffffffffffffffffffffffffffffffffffffff169050919050565b600061060a82610915565b90508073ffffffffffffffffffffffffffffffffffffffff168373ffffffffffffffffffffffffffffffffffffffff160361067a576040517f08c379a000000000000000000000000000000000000000000000000000000000815260040161067190612e02565b60405180910390fd5b8073ffffffffffffffffffffffffffffffffffffffff16610699610da7565b73ffffffffffffffffffffffffffffffffffffffff1614806106c857506106c7816106c2610da7565b610be4565b5b610707576040517f08c379a00000000000000000000000000000000000000000000000000000000081526004016106fe90612e94565b60405180910390fd5b6107118383610daf565b505050565b6000600880549050905090565b61073461072e610da7565b82610e68565b610773576040517f08c379a000000000000000000000000000000000000000000000000000000000815260040161076a90612f26565b60405180910390fd5b61077e838383610efd565b505050565b600061078e836109d3565b82106107cf576040517f08c379a00000000000000000000000000000000000000000000000000000000081526004016107c690612fb8565b60405180910390fd5b600660008473ffffffffffffffffffffffffffffffffffffffff1673ffffffffffffffffffffffffffffffffffffffff168152602001908152602001600020600083815260200190815260200160002054905092915050565b61084383838360405180602001604052806000815250610b70565b505050565b610859610853610da7565b82610e68565b610898576040517f08c379a000000000000000000000000000000000000000000000000000000000815260040161088f90612f26565b60405180910390fd5b6108a1816111f6565b50565b60006108ae610716565b82106108ef576040517f08c379a00000000000000000000000000000000000000000000000000000000081526004016108e69061304a565b60405180910390fd5b600882815481106109035761090261306a565b5b90600052602060002001549050919050565b60008061092183611202565b9050600073ffffffffffffffffffffffffffffffffffffffff168173ffffffffffffffffffffffffffffffffffffffff1603610992576040517f08c379a0000000000000000000000000000000000000000000000000000000008152600401610989906130e5565b60405180910390fd5b80915050919050565b6109a361123f565b60006109af600c6112bd565b90506109bb600c6112cb565b6109c533826112e1565b6109cf81836112ff565b5050565b60008073ffffffffffffffffffffffffffffffffffffffff168273ffffffffffffffffffffffffffffffffffffffff1603610a43576040517f08c379a0000000000000000000000000000000000000000000000000000000008152600401610a3a90613177565b60405180910390fd5b600360008373ffffffffffffffffffffffffffffffffffffffff1673ffffffffffffffffffffffffffffffffffffffff168152602001908152602001600020549050919050565b610a9261123f565b610a9c60006113a3565b565b6000600b60009054906101000a900473ffffffffffffffffffffffffffffffffffffffff16905090565b606060018054610ad790612d5f565b80601f0160208091040260200160405190810160405280929190818152602001828054610b0390612d5f565b8015610b505780601f10610b2557610100808354040283529160200191610b50565b820191906000526020600020905b815481529060010190602001808311610b3357829003601f168201915b5050505050905090565b610b6c610b65610da7565b8383611469565b5050565b610b81610b7b610da7565b83610e68565b610bc0576040517f08c379a0000000000000000000000000000000000000000000000000000000008152600401610bb790612f26565b60405180910390fd5b610bcc848484846115d5565b50505050565b6060610bdd82611631565b9050919050565b6000600560008473ffffffffffffffffffffffffffffffffffffffff1673ffffffffffffffffffffffffffffffffffffffff16815260200190815260200160002060008373ffffffffffffffffffffffffffffffffffffffff1673ffffffffffffffffffffffffffffffffffffffff16815260200190815260200160002060009054906101000a900460ff16905092915050565b610c8061123f565b600073ffffffffffffffffffffffffffffffffffffffff168173ffffffffffffffffffffffffffffffffffffffff1603610cef576040517f08c379a0000000000000000000000000000000000000000000000000000000008152600401610ce690613209565b60405180910390fd5b610cf8816113a3565b50565b6000634906490660e01b7bffffffffffffffffffffffffffffffffffffffffffffffffffffffff1916827bffffffffffffffffffffffffffffffffffffffffffffffffffffffff19161480610d555750610d5482611743565b5b9050919050565b610d65816117bd565b610da4576040517f08c379a0000000000000000000000000000000000000000000000000000000008152600401610d9b906130e5565b60405180910390fd5b50565b600033905090565b816004600083815260200190815260200160002060006101000a81548173ffffffffffffffffffffffffffffffffffffffff021916908373ffffffffffffffffffffffffffffffffffffffff160217905550808273ffffffffffffffffffffffffffffffffffffffff16610e2283610915565b73ffffffffffffffffffffffffffffffffffffffff167f8c5be1e5ebec7d5bd14f71427d1e84f3dd0314c0f7b2291e5b200ac8c7c3b92560405160405180910390a45050565b600080610e7483610915565b90508073ffffffffffffffffffffffffffffffffffffffff168473ffffffffffffffffffffffffffffffffffffffff161480610eb65750610eb58185610be4565b5b80610ef457508373ffffffffffffffffffffffffffffffffffffffff16610edc846105b9565b73ffffffffffffffffffffffffffffffffffffffff16145b91505092915050565b8273ffffffffffffffffffffffffffffffffffffffff16610f1d82610915565b73ffffffffffffffffffffffffffffffffffffffff1614610f73576040517f08c379a0000000000000000000000000000000000000000000000000000000008152600401610f6a9061329b565b60405180910390fd5b600073ffffffffffffffffffffffffffffffffffffffff168273ffffffffffffffffffffffffffffffffffffffff1603610fe2576040517f08c379a0000000000000000000000000000000000000000000000000000000008152600401610fd99061332d565b60405180910390fd5b610fef83838360016117fe565b8273ffffffffffffffffffffffffffffffffffffffff1661100f82610915565b73ffffffffffffffffffffffffffffffffffffffff1614611065576040517f08c379a000000000000000000000000000000000000000000000000000000000815260040161105c9061329b565b60405180910390fd5b6004600082815260200190815260200160002060006101000a81549073ffffffffffffffffffffffffffffffffffffffff02191690556001600360008573ffffffffffffffffffffffffffffffffffffffff1673ffffffffffffffffffffffffffffffffffffffff168152602001908152602001600020600082825403925050819055506001600360008473ffffffffffffffffffffffffffffffffffffffff1673ffffffffffffffffffffffffffffffffffffffff16815260200190815260200160002060008282540192505081905550816002600083815260200190815260200160002060006101000a81548173ffffffffffffffffffffffffffffffffffffffff021916908373ffffffffffffffffffffffffffffffffffffffff160217905550808273ffffffffffffffffffffffffffffffffffffffff168473ffffffffffffffffffffffffffffffffffffffff167fddf252ad1be2c89b69c2b068fc378daa952ba7f163c4a11628f55a4df523b3ef60405160405180910390a46111f18383836001611810565b505050565b6111ff81611816565b50565b60006002600083815260200190815260200160002060009054906101000a900473ffffffffffffffffffffffffffffffffffffffff169050919050565b611247610da7565b73ffffffffffffffffffffffffffffffffffffffff16611265610a9e565b73ffffffffffffffffffffffffffffffffffffffff16146112bb576040517f08c379a00000000000000000000000000000000000000000000000000000000081526004016112b290613399565b60405180910390fd5b565b600081600001549050919050565b6001816000016000828254019250508190555050565b6112fb828260405180602001604052806000815250611869565b5050565b611308826117bd565b611347576040517f08c379a000000000000000000000000000000000000000000000000000000000815260040161133e9061342b565b60405180910390fd5b80600a6000848152602001908152602001600020908161136791906135f7565b507ff8e1a15aba9398e019f0b49df1a4fde98ee17ae345cb5f6b5e2c27f5033e8ce7826040516113979190612947565b60405180910390a15050565b6000600b60009054906101000a900473ffffffffffffffffffffffffffffffffffffffff16905081600b60006101000a81548173ffffffffffffffffffffffffffffffffffffffff021916908373ffffffffffffffffffffffffffffffffffffffff1602179055508173ffffffffffffffffffffffffffffffffffffffff168173ffffffffffffffffffffffffffffffffffffffff167f8be0079c531659141344cd1fd0a4f28419497f9722a3daafe3b4186f6b6457e060405160405180910390a35050565b8173ffffffffffffffffffffffffffffffffffffffff168373ffffffffffffffffffffffffffffffffffffffff16036114d7576040517f08c379a00000000000000000000000000000000000000000000000000000000081526004016114ce90613715565b60405180910390fd5b80600560008573ffffffffffffffffffffffffffffffffffffffff1673ffffffffffffffffffffffffffffffffffffffff16815260200190815260200160002060008473ffffffffffffffffffffffffffffffffffffffff1673ffffffffffffffffffffffffffffffffffffffff16815260200190815260200160002060006101000a81548160ff0219169083151502179055508173ffffffffffffffffffffffffffffffffffffffff168373ffffffffffffffffffffffffffffffffffffffff167f17307eab39ab6107e8899845ad3d59bd9653f200f220920489ca2b5937696c31836040516115c89190612740565b60405180910390a3505050565b6115e0848484610efd565b6115ec848484846118c4565b61162b576040517f08c379a0000000000000000000000000000000000000000000000000000000008152600401611622906137a7565b60405180910390fd5b50505050565b606061163c82610d5c565b6000600a6000848152602001908152602001600020805461165c90612d5f565b80601f016020809104026020016040519081016040528092919081815260200182805461168890612d5f565b80156116d55780601f106116aa576101008083540402835291602001916116d5565b820191906000526020600020905b8154815290600101906020018083116116b857829003601f168201915b5050505050905060006116e6611a4b565b905060008151036116fb57819250505061173e565b600082511115611730578082604051602001611718929190613803565b6040516020818303038152906040529250505061173e565b61173984611a62565b925050505b919050565b60007f780e9d63000000000000000000000000000000000000000000000000000000007bffffffffffffffffffffffffffffffffffffffffffffffffffffffff1916827bffffffffffffffffffffffffffffffffffffffffffffffffffffffff191614806117b657506117b582611aca565b5b9050919050565b60008073ffffffffffffffffffffffffffffffffffffffff166117df83611202565b73ffffffffffffffffffffffffffffffffffffffff1614159050919050565b61180a84848484611bac565b50505050565b50505050565b61181f81611d0a565b6000600a6000838152602001908152602001600020805461183f90612d5f565b90501461186657600a60008281526020019081526020016000206000611865919061262f565b5b50565b6118738383611e58565b61188060008484846118c4565b6118bf576040517f08c379a00000000000000000000000000000000000000000000000000000000081526004016118b6906137a7565b60405180910390fd5b505050565b60006118e58473ffffffffffffffffffffffffffffffffffffffff16612075565b15611a3e578373ffffffffffffffffffffffffffffffffffffffff1663150b7a0261190e610da7565b8786866040518563ffffffff1660e01b8152600401611930949392919061387c565b6020604051808303816000875af192505050801561196c57506040513d601f19601f8201168201806040525081019061196991906138dd565b60015b6119ee573d806000811461199c576040519150601f19603f3d011682016040523d82523d6000602084013e6119a1565b606091505b5060008151036119e6576040517f08c379a00000000000000000000000000000000000000000000000000000000081526004016119dd906137a7565b60405180910390fd5b805181602001fd5b63150b7a0260e01b7bffffffffffffffffffffffffffffffffffffffffffffffffffffffff1916817bffffffffffffffffffffffffffffffffffffffffffffffffffffffff191614915050611a43565b600190505b949350505050565b606060405180602001604052806000815250905090565b6060611a6d82610d5c565b6000611a77611a4b565b90506000815111611a975760405180602001604052806000815250611ac2565b80611aa184612098565b604051602001611ab2929190613803565b6040516020818303038152906040525b915050919050565b60007f80ac58cd000000000000000000000000000000000000000000000000000000007bffffffffffffffffffffffffffffffffffffffffffffffffffffffff1916827bffffffffffffffffffffffffffffffffffffffffffffffffffffffff19161480611b9557507f5b5e139f000000000000000000000000000000000000000000000000000000007bffffffffffffffffffffffffffffffffffffffffffffffffffffffff1916827bffffffffffffffffffffffffffffffffffffffffffffffffffffffff1916145b80611ba55750611ba482612166565b5b9050919050565b611bb8848484846121d0565b6001811115611bfc576040517f08c379a0000000000000000000000000000000000000000000000000000000008152600401611bf39061397c565b60405180910390fd5b6000829050600073ffffffffffffffffffffffffffffffffffffffff168573ffffffffffffffffffffffffffffffffffffffff1603611c4357611c3e816121d6565b611c82565b8373ffffffffffffffffffffffffffffffffffffffff168573ffffffffffffffffffffffffffffffffffffffff1614611c8157611c80858261221f565b5b5b600073ffffffffffffffffffffffffffffffffffffffff168473ffffffffffffffffffffffffffffffffffffffff1603611cc457611cbf8161238c565b611d03565b8473ffffffffffffffffffffffffffffffffffffffff168473ffffffffffffffffffffffffffffffffffffffff1614611d0257611d01848261245d565b5b5b5050505050565b6000611d1582610915565b9050611d258160008460016117fe565b611d2e82610915565b90506004600083815260200190815260200160002060006101000a81549073ffffffffffffffffffffffffffffffffffffffff02191690556001600360008373ffffffffffffffffffffffffffffffffffffffff1673ffffffffffffffffffffffffffffffffffffffff168152602001908152602001600020600082825403925050819055506002600083815260200190815260200160002060006101000a81549073ffffffffffffffffffffffffffffffffffffffff021916905581600073ffffffffffffffffffffffffffffffffffffffff168273ffffffffffffffffffffffffffffffffffffffff167fddf252ad1be2c89b69c2b068fc378daa952ba7f163c4a11628f55a4df523b3ef60405160405180910390a4611e54816000846001611810565b5050565b600073ffffffffffffffffffffffffffffffffffffffff168273ffffffffffffffffffffffffffffffffffffffff1603611ec7576040517f08c379a0000000000000000000000000000000000000000000000000000000008152600401611ebe906139e8565b60405180910390fd5b611ed0816117bd565b15611f10576040517f08c379a0000000000000000000000000000000000000000000000000000000008152600401611f0790613a54565b60405180910390fd5b611f1e6000838360016117fe565b611f27816117bd565b15611f67576040517f08c379a0000000000000000000000000000000000000000000000000000000008152600401611f5e90613a54565b60405180910390fd5b6001600360008473ffffffffffffffffffffffffffffffffffffffff1673ffffffffffffffffffffffffffffffffffffffff16815260200190815260200160002060008282540192505081905550816002600083815260200190815260200160002060006101000a81548173ffffffffffffffffffffffffffffffffffffffff021916908373ffffffffffffffffffffffffffffffffffffffff160217905550808273ffffffffffffffffffffffffffffffffffffffff16600073ffffffffffffffffffffffffffffffffffffffff167fddf252ad1be2c89b69c2b068fc378daa952ba7f163c4a11628f55a4df523b3ef60405160405180910390a4612071600083836001611810565b5050565b6000808273ffffffffffffffffffffffffffffffffffffffff163b119050919050565b6060600060016120a7846124dc565b01905060008167ffffffffffffffff8111156120c6576120c56129bf565b5b6040519080825280601f01601f1916602001820160405280156120f85781602001600182028036833780820191505090505b509050600082602001820190505b60011561215b578080600190039150507f3031323334353637383961626364656600000000000000000000000000000000600a86061a8153600a858161214f5761214e613a74565b5b04945060008503612106575b819350505050919050565b60007f01ffc9a7000000000000000000000000000000000000000000000000000000007bffffffffffffffffffffffffffffffffffffffffffffffffffffffff1916827bffffffffffffffffffffffffffffffffffffffffffffffffffffffff1916149050919050565b50505050565b6008805490506009600083815260200190815260200160002081905550600881908060018154018082558091505060019003906000526020600020016000909190919091505550565b6000600161222c846109d3565b6122369190613ad2565b905060006007600084815260200190815260200160002054905081811461231b576000600660008673ffffffffffffffffffffffffffffffffffffffff1673ffffffffffffffffffffffffffffffffffffffff168152602001908152602001600020600084815260200190815260200160002054905080600660008773ffffffffffffffffffffffffffffffffffffffff1673ffffffffffffffffffffffffffffffffffffffff168152602001908152602001600020600084815260200190815260200160002081905550816007600083815260200190815260200160002081905550505b6007600084815260200190815260200160002060009055600660008573ffffffffffffffffffffffffffffffffffffffff1673ffffffffffffffffffffffffffffffffffffffff16815260200190815260200160002060008381526020019081526020016000206000905550505050565b600060016008805490506123a09190613ad2565b90506000600960008481526020019081526020016000205490506000600883815481106123d0576123cf61306a565b5b9060005260206000200154905080600883815481106123f2576123f161306a565b5b90600052602060002001819055508160096000838152602001908152602001600020819055506009600085815260200190815260200160002060009055600880548061244157612440613b06565b5b6001900381819060005260206000200160009055905550505050565b6000612468836109d3565b905081600660008573ffffffffffffffffffffffffffffffffffffffff1673ffffffffffffffffffffffffffffffffffffffff168152602001908152602001600020600083815260200190815260200160002081905550806007600084815260200190815260200160002081905550505050565b600080600090507a184f03e93ff9f4daa797ed6e38ed64bf6a1f010000000000000000831061253a577a184f03e93ff9f4daa797ed6e38ed64bf6a1f01000000000000000083816125305761252f613a74565b5b0492506040810190505b6d04ee2d6d415b85acef81000000008310612577576d04ee2d6d415b85acef8100000000838161256d5761256c613a74565b5b0492506020810190505b662386f26fc1000083106125a657662386f26fc10000838161259c5761259b613a74565b5b0492506010810190505b6305f5e10083106125cf576305f5e10083816125c5576125c4613a74565b5b0492506008810190505b61271083106125f45761271083816125ea576125e9613a74565b5b0492506004810190505b60648310612617576064838161260d5761260c613a74565b5b0492506002810190505b600a8310612626576001810190505b80915050919050565b50805461263b90612d5f565b6000825580601f1061264d575061266c565b601f01602090049060005260206000209081019061266b919061266f565b5b50565b5b80821115612688576000816000905550600101612670565b5090565b6000604051905090565b600080fd5b600080fd5b60007fffffffff0000000000000000000000000000000000000000000000000000000082169050919050565b6126d5816126a0565b81146126e057600080fd5b50565b6000813590506126f2816126cc565b92915050565b60006020828403121561270e5761270d612696565b5b600061271c848285016126e3565b91505092915050565b60008115159050919050565b61273a81612725565b82525050565b60006020820190506127556000830184612731565b92915050565b600081519050919050565b600082825260208201905092915050565b60005b8381101561279557808201518184015260208101905061277a565b60008484015250505050565b6000601f19601f8301169050919050565b60006127bd8261275b565b6127c78185612766565b93506127d7818560208601612777565b6127e0816127a1565b840191505092915050565b6000602082019050818103600083015261280581846127b2565b905092915050565b6000819050919050565b6128208161280d565b811461282b57600080fd5b50565b60008135905061283d81612817565b92915050565b60006020828403121561285957612858612696565b5b60006128678482850161282e565b91505092915050565b600073ffffffffffffffffffffffffffffffffffffffff82169050919050565b600061289b82612870565b9050919050565b6128ab81612890565b82525050565b60006020820190506128c660008301846128a2565b92915050565b6128d581612890565b81146128e057600080fd5b50565b6000813590506128f2816128cc565b92915050565b6000806040838503121561290f5761290e612696565b5b600061291d858286016128e3565b925050602061292e8582860161282e565b9150509250929050565b6129418161280d565b82525050565b600060208201905061295c6000830184612938565b92915050565b60008060006060848603121561297b5761297a612696565b5b6000612989868287016128e3565b935050602061299a868287016128e3565b92505060406129ab8682870161282e565b9150509250925092565b600080fd5b600080fd5b7f4e487b7100000000000000000000000000000000000000000000000000000000600052604160045260246000fd5b6129f7826127a1565b810181811067ffffffffffffffff82111715612a1657612a156129bf565b5b80604052505050565b6000612a2961268c565b9050612a3582826129ee565b919050565b600067ffffffffffffffff821115612a5557612a546129bf565b5b612a5e826127a1565b9050602081019050919050565b82818337600083830152505050565b6000612a8d612a8884612a3a565b612a1f565b905082815260208101848484011115612aa957612aa86129ba565b5b612ab4848285612a6b565b509392505050565b600082601f830112612ad157612ad06129b5565b5b8135612ae1848260208601612a7a565b91505092915050565b600060208284031215612b0057612aff612696565b5b600082013567ffffffffffffffff811115612b1e57612b1d61269b565b5b612b2a84828501612abc565b91505092915050565b600060208284031215612b4957612b48612696565b5b6000612b57848285016128e3565b91505092915050565b612b6981612725565b8114612b7457600080fd5b50565b600081359050612b8681612b60565b92915050565b60008060408385031215612ba357612ba2612696565b5b6000612bb1858286016128e3565b9250506020612bc285828601612b77565b9150509250929050565b600067ffffffffffffffff821115612be757612be66129bf565b5b612bf0826127a1565b9050602081019050919050565b6000612c10612c0b84612bcc565b612a1f565b905082815260208101848484011115612c2c57612c2b6129ba565b5b612c37848285612a6b565b509392505050565b600082601f830112612c5457612c536129b5565b5b8135612c64848260208601612bfd565b91505092915050565b60008060008060808587031215612c8757612c86612696565b5b6000612c95878288016128e3565b9450506020612ca6878288016128e3565b9350506040612cb78782880161282e565b925050606085013567ffffffffffffffff811115612cd857612cd761269b565b5b612ce487828801612c3f565b91505092959194509250565b60008060408385031215612d0757612d06612696565b5b6000612d15858286016128e3565b9250506020612d26858286016128e3565b9150509250929050565b7f4e487b7100000000000000000000000000000000000000000000000000000000600052602260045260246000fd5b60006002820490506001821680612d7757607f821691505b602082108103612d8a57612d89612d30565b5b50919050565b7f4552433732313a20617070726f76616c20746f2063757272656e74206f776e6560008201527f7200000000000000000000000000000000000000000000000000000000000000602082015250565b6000612dec602183612766565b9150612df782612d90565b604082019050919050565b60006020820190508181036000830152612e1b81612ddf565b9050919050565b7f4552433732313a20617070726f76652063616c6c6572206973206e6f7420746f60008201527f6b656e206f776e6572206f7220617070726f76656420666f7220616c6c000000602082015250565b6000612e7e603d83612766565b9150612e8982612e22565b604082019050919050565b60006020820190508181036000830152612ead81612e71565b9050919050565b7f4552433732313a2063616c6c6572206973206e6f7420746f6b656e206f776e6560008201527f72206f7220617070726f76656400000000000000000000000000000000000000602082015250565b6000612f10602d83612766565b9150612f1b82612eb4565b604082019050919050565b60006020820190508181036000830152612f3f81612f03565b9050919050565b7f455243373231456e756d657261626c653a206f776e657220696e646578206f7560008201527f74206f6620626f756e6473000000000000000000000000000000000000000000602082015250565b6000612fa2602b83612766565b9150612fad82612f46565b604082019050919050565b60006020820190508181036000830152612fd181612f95565b9050919050565b7f455243373231456e756d657261626c653a20676c6f62616c20696e646578206f60008201527f7574206f6620626f756e64730000000000000000000000000000000000000000602082015250565b6000613034602c83612766565b915061303f82612fd8565b604082019050919050565b6000602082019050818103600083015261306381613027565b9050919050565b7f4e487b7100000000000000000000000000000000000000000000000000000000600052603260045260246000fd5b7f4552433732313a20696e76616c696420746f6b656e2049440000000000000000600082015250565b60006130cf601883612766565b91506130da82613099565b602082019050919050565b600060208201905081810360008301526130fe816130c2565b9050919050565b7f4552433732313a2061646472657373207a65726f206973206e6f74206120766160008201527f6c6964206f776e65720000000000000000000000000000000000000000000000602082015250565b6000613161602983612766565b915061316c82613105565b604082019050919050565b6000602082019050818103600083015261319081613154565b9050919050565b7f4f776e61626c653a206e6577206f776e657220697320746865207a65726f206160008201527f6464726573730000000000000000000000000000000000000000000000000000602082015250565b60006131f3602683612766565b91506131fe82613197565b604082019050919050565b60006020820190508181036000830152613222816131e6565b9050919050565b7f4552433732313a207472616e736665722066726f6d20696e636f72726563742060008201527f6f776e6572000000000000000000000000000000000000000000000000000000602082015250565b6000613285602583612766565b915061329082613229565b604082019050919050565b600060208201905081810360008301526132b481613278565b9050919050565b7f4552433732313a207472616e7366657220746f20746865207a65726f2061646460008201527f7265737300000000000000000000000000000000000000000000000000000000602082015250565b6000613317602483612766565b9150613322826132bb565b604082019050919050565b600060208201905081810360008301526133468161330a565b9050919050565b7f4f776e61626c653a2063616c6c6572206973206e6f7420746865206f776e6572600082015250565b6000613383602083612766565b915061338e8261334d565b602082019050919050565b600060208201905081810360008301526133b281613376565b9050919050565b7f45524337323155524953746f726167653a2055524920736574206f66206e6f6e60008201527f6578697374656e7420746f6b656e000000000000000000000000000000000000602082015250565b6000613415602e83612766565b9150613420826133b9565b604082019050919050565b6000602082019050818103600083015261344481613408565b9050919050565b60008190508160005260206000209050919050565b60006020601f8301049050919050565b600082821b905092915050565b6000600883026134ad7fffffffffffffffffffffffffffffffffffffffffffffffffffffffffffffffff82613470565b6134b78683613470565b95508019841693508086168417925050509392505050565b6000819050919050565b60006134f46134ef6134ea8461280d565b6134cf565b61280d565b9050919050565b6000819050919050565b61350e836134d9565b61352261351a826134fb565b84845461347d565b825550505050565b600090565b61353761352a565b613542818484613505565b505050565b5b818110156135665761355b60008261352f565b600181019050613548565b5050565b601f8211156135ab5761357c8161344b565b61358584613460565b81016020851015613594578190505b6135a86135a085613460565b830182613547565b50505b505050565b600082821c905092915050565b60006135ce600019846008026135b0565b1980831691505092915050565b60006135e783836135bd565b9150826002028217905092915050565b6136008261275b565b67ffffffffffffffff811115613619576136186129bf565b5b6136238254612d5f565b61362e82828561356a565b600060209050601f831160018114613661576000841561364f578287015190505b61365985826135db565b8655506136c1565b601f19841661366f8661344b565b60005b8281101561369757848901518255600182019150602085019450602081019050613672565b868310156136b457848901516136b0601f8916826135bd565b8355505b6001600288020188555050505b505050505050565b7f4552433732313a20617070726f766520746f2063616c6c657200000000000000600082015250565b60006136ff601983612766565b915061370a826136c9565b602082019050919050565b6000602082019050818103600083015261372e816136f2565b9050919050565b7f4552433732313a207472616e7366657220746f206e6f6e20455243373231526560008201527f63656976657220696d706c656d656e7465720000000000000000000000000000602082015250565b6000613791603283612766565b915061379c82613735565b604082019050919050565b600060208201905081810360008301526137c081613784565b9050919050565b600081905092915050565b60006137dd8261275b565b6137e781856137c7565b93506137f7818560208601612777565b80840191505092915050565b600061380f82856137d2565b915061381b82846137d2565b91508190509392505050565b600081519050919050565b600082825260208201905092915050565b600061384e82613827565b6138588185613832565b9350613868818560208601612777565b613871816127a1565b840191505092915050565b600060808201905061389160008301876128a2565b61389e60208301866128a2565b6138ab6040830185612938565b81810360608301526138bd8184613843565b905095945050505050565b6000815190506138d7816126cc565b92915050565b6000602082840312156138f3576138f2612696565b5b6000613901848285016138c8565b91505092915050565b7f455243373231456e756d657261626c653a20636f6e736563757469766520747260008201527f616e7366657273206e6f7420737570706f727465640000000000000000000000602082015250565b6000613966603583612766565b91506139718261390a565b604082019050919050565b6000602082019050818103600083015261399581613959565b9050919050565b7f4552433732313a206d696e7420746f20746865207a65726f2061646472657373600082015250565b60006139d2602083612766565b91506139dd8261399c565b602082019050919050565b60006020820190508181036000830152613a01816139c5565b9050919050565b7f4552433732313a20746f6b656e20616c7265616479206d696e74656400000000600082015250565b6000613a3e601c83612766565b9150613a4982613a08565b602082019050919050565b60006020820190508181036000830152613a6d81613a31565b9050919050565b7f4e487b7100000000000000000000000000000000000000000000000000000000600052601260045260246000fd5b7f4e487b7100000000000000000000000000000000000000000000000000000000600052601160045260246000fd5b6000613add8261280d565b9150613ae88361280d565b9250828203905081811115613b0057613aff613aa3565b5b92915050565b7f4e487b7100000000000000000000000000000000000000000000000000000000600052603160045260246000fdfea264697066735822122078265102a1d0af0caa62fd76f9f8de487a4b1f35ec502475a4fe01c24172cd2b64736f6c63430008130033",
  "linkReferences": {},
  "deployedLinkReferences": {}
}